:100000000C9438010C9469010C9469010C946901F9
:100010000C9469010C9469010C9469010C946901B8
:100020000C9469010C9469010C9469010C946901A8
:100030000C9469010C9469010C9469010C94690198
:100040000C9469010C9469010C9469010C94690188
:100050000C9469010C9469010C9469010C940906D3
:100060000C9469010C9469010C9469010C94690168
:100070000C9469010C9469010C9469010C94690158
:100080000C9469010C9469010C9469010C94690148
:100090000C9469010C9469010C9469010C94690138
:1000A0000C9469010C9469010C9469010C94690128
:1000B0000C9469010C9469010C9469010C94690118
:1000C0000C9469010C9469010C9469010C94690108
:1000D0000C9469010C9469010C9469010C946901F8
:1000E0000C9469010C9449020C94F8020C944D0A8A
:1000F0000C945C020C9400030C94FC020C942202FD
:100100000C9461020C94CA090C941C020C94F8041F
:100110000C9431030C9404030C942E020C943102C1
:100120000C9453020C9457020C9437020C94260240
:100130000C942A020C945D020C9403030C944F025D
:100140000C9445020C943B020C94410200002100E7
:10015000240027002A002D00300033000101000098
:10016000040107010A0100002200250028002B00DD
:100170002E003100340002010000050108010B01CE
:10018000000020002300260029002C002F00320050
:100190000001000003010601090105050505070529
:1001A00008080808020202020A0A080804040404F3
:1001B000010101010101010103030303030303031F
:1001C000040707070C0C0C0C0C0C0C0C02020202AE
:1001D00006060606060606060B0B0B0B0B0B0B0B97
:1001E0000102102020080810204010204080020149
:1001F000020108040201010204081020408080402E
:10020000201008040201800402018040201008042C
:1002100002010804020101020408102040800102CA
:1002200004081020408000000A0B02090C0D0E0883
:1002300007030401000000000000000000000000AF
:1002400000000000000000000000000000000000AE
:10025000000012111000000000000000000000006B
:10026000000000000000000000000000CA094D0A64
:1002700011241FBECFEFD1E2DEBFCDBF00E00CBF27
:1002800022E0A8E3B2E001C01D92AE3DB207E1F763
:1002900012E0A0E0B2E0E8EFFAE100E00BBF02C03C
:1002A00007900D92A833B107D9F711E0C7E3D1E069
:1002B00000E006C021970109802FFE010E94410B3A
:1002C000C633D10780E00807A9F70E9453060C94B3
:1002D0006A0D0C94000096E0899FD0011124A35B65
:1002E000BD4F90967C936E935F9791E091969C930F
:1002F0009197E091BA02F091BB029091B9029923D3
:1003000039F0309751F0811108C080916902199439
:10031000309719F05C968C91FACF0895CF92DF92C6
:10032000EF92FF920F931F9396E0899FF0011124A3
:10033000E35BFD4F11A2278D30A12130310551F132
:1003400078F02230310509F451C02330310509F429
:1003500052C01F910F91FF90EF90DF90CF900895C2
:100360006623B9F361E070E00E946B012FB7F89447
:100370008091490290914A02A0914B02B0914C02A7
:100380002FBF8093A5029093A602A093A702B093DB
:10039000A802DFCF9FB7F894C0904902D0904A02DC
:1003A000E0904B02F0904C029FBF0091A50210918B
:1003B000A6022091A7023091A802C01AD10AE20A2F
:1003C000F30A0091B7021091B80230E020E00C155A
:1003D0001D052E053F0550F462E070E01F910F915E
:1003E000FF90EF90DF90CF900C946B016111B1CF33
:1003F00063E070E0F3CF70E060E0F0CF81508231D5
:1004000008F05AC0E82FF0E08827E65FFD4F8F4FD5
:100410000C94410B2A022E021C02220226025C02CC
:10042000310237023B024102450249024F025302A8
:100430005C0257025D026102809180008F77809399
:1004400080000895809180008F7DF9CF8091800099
:10045000877FF5CF84B58F7784BD089584B58F7D70
:10046000FBCF8091B0008F778093B000089580918A
:10047000B0008F7DF9CF809190008F7780939000AE
:100480000895809190008F7DF9CF80919000877FB3
:10049000F5CF8091A0008F778093A0000895809180
:1004A000A0008F7DF9CF8091A000877FF5CF80914C
:1004B00020018F77809320010895809120018F7D06
:1004C000F9CF80912001877FF5CFCF93DF93282F3D
:1004D00030E0F901EA5DFD4F8491F901E052FE4FF1
:1004E000D491F901E656FE4FC491CC23A1F08111BD
:1004F0000E94FE01EC2FF0E0EE0FFF1FE058FE4FD0
:10050000A591B491EC91ED2381E090E009F480E0B5
:10051000DF91CF91089580E090E0FACF1F93CF93C1
:10052000DF93282F30E0F901EA5DFD4F8491F90156
:10053000E052FE4FD491F901E656FE4FC491CC2310
:10054000A9F0162F81110E94FE01EC2FF0E0EE0FB2
:10055000FF1FEA59FE4FA591B4918FB7F894EC9123
:10056000111108C0D095DE23DC938FBFDF91CF91AE
:100570001F910895DE2BF8CFCF93DF9390E0FC011D
:10058000E052FE4F249186569E4FFC0184918823B1
:10059000C9F090E0880F991FFC01E45BFE4FA59124
:1005A000B491FC01EA59FE4FC591D49161110DC07F
:1005B0009FB7F8948C91209582238C93888128236F
:1005C00028839FBFDF91CF910895623051F49FB788
:1005D000F8943C91822F809583238C93E8812E2B75
:1005E000EFCF8FB7F894EC912E2B2C938FBFEACFDF
:1005F000862F642F0C94BC02862F642F0C948E02DD
:10060000862F0C9465020895AF92BF92CF92DF922D
:10061000EF92FF920F931F93CF93DF936C017B01B7
:100620008B01040F151FEB015E01AE18BF08C01748
:10063000D10759F06991D601ED91FC910190F081BB
:10064000E02DC6011995892B79F7C501DF91CF916E
:100650001F910F91FF90EF90DF90CF90BF90AF90E0
:10066000089590E080E008958F929F92AF92BF929C
:100670000F931F93CF93DF93CDB7DEB7A1970FB63C
:10068000F894DEBF0FBECDBF19A2423008F44AE095
:100690008E010F5D1F4F842E912CB12CA12CA50132
:1006A00094010E94000BE62FB901CA01EA3044F51B
:1006B000E05DD801EE938D01232B242B252B79F7B8
:1006C00090E080E0109769F0FD0101900020E9F7CB
:1006D0003197AF014A1B5B0BBD0182EC92E00E9497
:1006E0000403A1960FB6F894DEBF0FBECDBFDF9115
:1006F000CF911F910F91BF90AF909F908F900895D1
:10070000E95CD7CFFC0180819181009711F00C94B6
:10071000E50B0895CF93DF93682F8091C0029091ED
:10072000C102029790F0C091BC02D091BD02062E8A
:10073000000C770BCE0101960E94580D009729F00E
:100740008C1B9D0BDF91CF9108958FEF9FEFFACF18
:10075000CF93DF93EC0160E08E810E948E0261E016
:100760008E810E948E0260E08E810E948E028BE854
:1007700091E00197F1F7DF91CF910895CF92DF9249
:10078000EF92FF920F931F93CF93DF936C017C0145
:1007900087E0E80EF11CD0E0C0E0062F10E0B801C1
:1007A0000C2E02C0759567950A94E2F76170F70107
:1007B00081917F010E948E022196C430D10579F784
:1007C000C601DF91CF911F910F91FF90EF90DF90C5
:1007D000CF900C94A803CF92DF92EF92FF920F93E9
:1007E0001F93CF93DF93EC01F62E642F8C810E9430
:1007F0008E028D818F3F19F060E00E948E020F2DD6
:1008000010E08F8584FF25C06E0187E0C80ED11CE3
:10081000F12CE12CB8010E2C02C0759567950A9455
:10082000E2F76170F60181916F010E948E02FFEF85
:10083000EF1AFF0A88E0E816F10461F7CE01DF91B4
:10084000CF911F910F91FF90EF90DF90CF900C947C
:10085000A803B80184E0759567958A95E1F7CE0104
:100860000E94BE036F2DCE01DF91CF911F910F919A
:10087000FF90EF90DF90CF900C94BE0340E0682F84
:1008800082EC92E00C94EB03CF93DF93823029F457
:100890009091D10298609093D1028093D5021092EA
:1008A000D60280E48093D70280E18093D80280E56D
:1008B0008093D90261E08091C6020E94BC028091BF
:1008C000C7028F3F19F061E00E94BC0261E0809195
:1008D000C8020E94BC02C2ECD2E09E01225C3240FF
:1008E0008091D10284FD0BC084E090E0219628170E
:1008F000390744F461E08E810E94BC02EECF88E0AB
:1009000090E0F4CF8BE39DE00197F1F760E08091F8
:10091000C6020E948E0260E08091C8020E948E0290
:100920008091C7028F3F19F060E00E948E02809193
:10093000D10284FD39C063E082EC92E00E94BE03E4
:10094000CBE4D6E4CE010197F1F763E082EC92E0CC
:100950000E94BE032197F1F763E082EC92E00E94CF
:10096000BE0383E592E00197F1F762E082EC92E04A
:100970000E94BE038091D10280620E943E0484E006
:100980008093D2028CE00E943E0481E00E943E04EB
:100990008BE39FE10197F1F782E08093D30286E039
:1009A000DF91CF910C943E0480620E943E048BE460
:1009B00096E40197F1F78091D10280620E943E0493
:1009C00083E592E00197F1F78091D10280620E9465
:1009D0003E04D0CF9091D502891710F08FEF890F88
:1009E000E82FF0E0EE53FD4F848980680C943E04BC
:1009F00041E00E94EB0381E090E008950F931F9384
:100A0000CF93DF938C01EB01FC01808191810097F2
:100A1000E1F06881798161157105A9F04281538106
:100A20002C813D814217530770F00E94630D8C8129
:100A30009D81F801958384831D821C82DF91CF9173
:100A40001F910F9108950E94E50B88819981F8010B
:100A5000918380838A819B81938382838C819D8112
:100A600095838483198218821B821A82E5CFFC0148
:100A700080819181009711F00C94590A60E070E038
:100A8000CB0108950F931F93CF93DF93EC018881DF
:100A90009981009759F02A813B812617370730F05A
:100AA00081E0DF91CF911F910F9108958B016F5FCE
:100AB0007F4F0E946E0C009759F0998388831B83A7
:100AC0000A832C813D81232B59F7FC011082E8CF4A
:100AD00080E0E7CFEF92FF920F931F93CF93DF93C6
:100AE000EC017B018A01BA010E944205288139810B
:100AF000811114C02115310519F0C9010E94E50BBF
:100B0000198218821D821C821B821A82CE01DF91FB
:100B1000CF911F910F91FF90EF9008951D830C834B
:100B2000B701C9010E94630DF1CFFC01118210824F
:100B3000138212821582148250E040E067E372E073
:100B40000C946A05FB0101900020E9F73197AF0191
:100B5000461B570B0C946A05CF92DF92EF92FF92DF
:100B60000F931F93CF93DF93EC016B017A0146172C
:100B7000570720F48D2D6A01E62EF82E198218826F
:100B80001B821A821D821C8250E040E067E372E003
:100B9000CE010E946A050091C0021091C102C016E8
:100BA000D10600F5E016F10608F48701E091BC02D9
:100BB000F091BD02E00FF11FF08010826091BC0245
:100BC0007091BD026C0D7D1D61157105A9F0CE01FE
:100BD0000E94A2058091BC029091BD02080F191FCE
:100BE000F801F082CE01DF91CF911F910F91FF901C
:100BF000EF90DF90CF90089588819981009711F050
:100C00000E94E50B198218821D821C821B821A82A7
:100C1000E1CF1F920F920FB60F9211242F933F93A3
:100C20008F939F93AF93BF938091490290914A0213
:100C3000A0914B02B0914C023091480223E0230F67
:100C40002D3758F50196A11DB11D209348028093C0
:100C5000490290934A02A0934B02B0934C028091B8
:100C6000440290914502A0914602B091470201963C
:100C7000A11DB11D8093440290934502A0934602AA
:100C8000B0934702BF91AF919F918F913F912F9168
:100C90000F900FBE0F901F90189526E8230F029615
:100CA000A11DB11DD2CFCF93DF93CDB7DEB7A897EB
:100CB0000FB6F894DEBF0FBECDBF789484B58260C6
:100CC00084BD84B5816084BD85B5826085BD85B5F0
:100CD000816085BD80916E00816080936E0010926E
:100CE00081008091810082608093810080918100E9
:100CF000816080938100809180008160809380007A
:100D00008091B10084608093B1008091B0008160D7
:100D10008093B000809191008260809391008091D7
:100D20009100816080939100809190008160809318
:100D300090008091A10082608093A1008091A10029
:100D400081608093A1008091A00081608093A000C9
:100D50008091210182608093210180912101816035
:100D600080932101809120018160809320018091F6
:100D70007A00846080937A0080917A008260809308
:100D80007A0080917A00816080937A0080917A0065
:100D9000806880937A001092C10082E00E9444042F
:100DA00080E00E94EA04412C512C3201439449E82E
:100DB000842E42E0942E51E05093B9028FB7F894FC
:100DC0004091490250914A0260914B0270914C024D
:100DD0008FBF8091A9029091AA02A091AB02B0911D
:100DE000AC02481B590B6A0B7B0B8091B5029091AA
:100DF000B602B0E0A0E084179507A607B70708F091
:100E00001CC110E08091B302181760F4E091AF02AA
:100E1000F091B002E10FF11D62E080810E94BC02FE
:100E20001F5FF0CF312C8091B402381608F061C0FA
:100E3000E32CF12CE091B102F091B202EE0DFF1D16
:100E400061E080810E94BC02E091B102F091B202A7
:100E5000EE0DFF1D60E080810E948E02D301C20171
:100E6000032C04C0880F991FAA1FBB1F0A94D2F736
:100E70005C016C01C094D094212C8091B30228169F
:100E800008F5022D10E0E091AF02F091B002E00F02
:100E9000F11F80810E9465020C5F1F4F000F111F20
:100EA000F801E35BFD4F892B41F4808191818A2910
:100EB0009B29918380832394E0CF808191818C2131
:100EC0009D21F7CFE091B102F091B202EE0DFF1D2E
:100ED00061E080810E948E028091B1029091B20205
:100EE000E80EF91E60E0F70180810E94BC02339495
:100EF0009ACF9DE4E92E92E0F92E8701F801878DC3
:100F000090A1892B31F4148E8FEF9FEF968F858FF0
:100F100011A20A5F1F4F8016910681F7D12C809194
:100F2000B302D81608F053C0C12CAD2CB12CAA0CBA
:100F3000BB1CF501EB5AFD4F5F012091B402C216B4
:100F400008F043C0F501608171810C2C02C07695D8
:100F500067950A94E2F7D29E900111242C0D311D61
:100F6000EDE4F2E080E0458D568D2417350709F455
:100F7000F3C18F5F36968A30B1F760FF24C0EDE48D
:100F8000F2E090E080E0448D411118C0E091AD02A4
:100F9000F091AE02E20FF31F408156E0589FF0013E
:100FA000599FF00D1124E35BFD4F448F368F258F41
:100FB00010A2178E61E00E948E0105C00196369640
:100FC0008A30910501F7C394B8CFD394A8CF80E0BD
:100FD000F70191A19111892FF6E0EF0EF11CE016B7
:100FE000F106B1F79FB7F8944091490250914A0237
:100FF00060914B0270914C029FBF4093A9025093A5
:10100000AA026093AB027093AC028823B1F0809186
:101010006E02882391F080916C0290916D0201978D
:1010200061F4F0906902F1100BC0E0E0F0E0EF2B0A
:1010300009F4C1CE0E940000BECE1092B902F5CFD5
:101040005FE6F51211C081E00E943E048BE39FE150
:101050000197F1F767E372E08CEB92E00E94A20542
:1010600080E00E94EA04E1CF8DE3F81611F1F982E5
:101070001A820091C0021091C1020F5F1F4FB80188
:101080008CEB92E00E944205882399F02091BC02EB
:101090003091BD028091C0029091C102BE016F5F8C
:1010A0007F4F820F931F0E94630D1093C102009324
:1010B000C00280E00E94EA044091C0025091C10247
:1010C0006091BC027091BD0282EC92E00E94040328
:1010D0009DE3F912AACF8BE20E948A035C018AE2A7
:1010E0000E948A036C018FE20E948A037C018DE2D8
:1010F0000E948A038C0181E00E94EA04EFEFAE16A1
:10110000BE0609F46CC0A50170E060E0CE01019656
:101110000E94AC05BE016F5F7F4F8EE392E00E949C
:10112000FE04CE0101960E9482034091C0025091BC
:10113000C102B5016F5F7F4FCE0101960E94AC05E1
:10114000BE016F5F7F4F88E392E00E94FE04CE01F4
:1011500001960E9482038EE392E00E9437056B01A4
:101160007C0188E392E00E943705C60ED71EE81E78
:10117000F91E4AE0C701B601F7FE0EC041E06DE27C
:1011800082EC92E00E94EB0366277727CB016C1973
:101190007D098E099F094AE00E9434031CA21BA20C
:1011A0001EA21DA218A61FA22AE0AE014F5F5F4F2C
:1011B000C701B6010E94800ABE016F5F7F4FCE015A
:1011C00083960E94A205BE016D5D7F4F8CEB92E07D
:1011D0000E94FE04CE0183960E94820326CFFFEF79
:1011E000CF16DF06C9F1A60170E060E0CE010196DE
:1011F0000E94AC05BE016F5F7F4F8EE392E00E94BC
:10120000FE04CE0101960E9482034091C0025091DB
:10121000C102B6016F5F7F4FCE0101960E94AC05FF
:10122000BE016F5F7F4F88E392E00E94FE04CE0113
:1012300001960E9482038EE392E00E9437056B01C3
:101240007C0188E392E00E943705A70196010E9485
:10125000F00A6B017C018DCF5FEFE516F50609F40E
:1012600041C0A70170E060E0CE0101960E94AC058C
:10127000BE016F5F7F4F8EE392E00E94FE04CE01BD
:1012800001960E9482034091C0025091C102B701B1
:101290006F5F7F4FCE0101960E94AC05BE016F5F6C
:1012A0007F4F88E392E00E94FE04CE0101960E94E7
:1012B00082038EE392E00E9437056B017C0188E394
:1012C00092E00E9437059B01AC01211531054105D3
:1012D000510509F450C0C701B6010E94220B6901F3
:1012E0007A0147CF0F3F1007C9F1A80170E060E015
:1012F000CE0101960E94AC05BE016F5F7F4F8EE369
:1013000092E00E94FE04CE0101960E948203409169
:10131000C0025091C102B8016F5F7F4FCE010196AC
:101320000E94AC05BE016F5F7F4F88E392E00E9490
:10133000FE04CE0101960E9482038EE392E00E9499
:1013400037056B017C0188E392E00E943705C61ADD
:10135000D70AE80AF90A0DCF61702DCE4091C0027C
:101360005091C1026091BC027091BD0282EC92E08A
:101370000E9404035ACE43E050E064E372E082EC42
:1013800092E00E94040367E372E08CEB92E00E941B
:10139000A2054BCE1092C5021092C4028CE292E0DC
:1013A0009093C3028093C2028CE08093C6028FEFB9
:1013B0008093C7028BE08093C80285E08093C902C6
:1013C00084E08093CA0283E08093CB0282E0809322
:1013D000CC021092CD021092CE021092CF02109247
:1013E000D0021092D10281E00E9444048CEB92E082
:1013F0000E9495058EE392E00E94950588E392E0B5
:101400000E94950510924F021092530210925202C0
:101410001092540282E292E090934E0280934D0229
:10142000E9E6F2E01082148213821582369682E099
:10143000E53AF807B9F784E092E09093B002809320
:10144000AF0280E092E09093B2028093B10284E018
:101450008093B3028093B40288E092E09093AE024E
:101460008093AD028AE090E09093B6028093B5023B
:1014700084EF91E09093B8028093B7021092BB0280
:101480001092BA021092A9021092AA021092AB0214
:101490001092AC021092B902089588E392E00E9483
:1014A00082038EE392E00E9482038CEB92E00C9424
:1014B00082031F93FC0199278827BC01E8941191AE
:1014C0001032E9F3193010F01E30C8F31B3251F01E
:1014D0001D3249F4689406C00E948F0A610F711D85
:1014E000811D911D119110531A30B0F33EF4909567
:1014F0008095709561957F4F8F4F9F4F1F910895F5
:10150000BB272A3051F4992342F4BDE2909580958F
:10151000709561957F4F8F4F9F4F0C94A50A592F5F
:10152000482F372F262F660F771F881F991F660FAA
:10153000771F881F991F620F731F841F951F660FE7
:10154000771F881F991F0895BB27FA01A62F6217DE
:10155000710581059105330B30FB66F0AA27660FF4
:10156000771F881F991FAA1FA21710F0A21B63954F
:101570003850A9F7A05DAA3308F0A95DA19336F70A
:10158000B111B1931082CA010C94C60ADC01FC01AE
:10159000672F71917723E1F7329704C07C916D93A7
:1015A00070836291AE17BF07C8F308950E94E10AE5
:1015B000A59F900DB49F900DA49F800D911D1124A7
:1015C0000895A29FB001B39FC001A39F700D811D1C
:1015D0001124911DB29F700D811D1124911D08953C
:1015E000DB018F939F930E94D60ABF91AF91A29F78
:1015F000800D911DA39F900DB29F900D1124089511
:10160000A1E21A2EAA1BBB1BFD010DC0AA1FBB1F06
:10161000EE1FFF1FA217B307E407F50720F0A21B78
:10162000B30BE40BF50B661F771F881F991F1A94E5
:1016300069F760957095809590959B01AC01BD010F
:10164000CF010895052E97FB1EF400940E94390BDC
:1016500057FD07D00E94000B07FC03D04EF40C94FA
:10166000390B50954095309521953F4F4F4F5F4F27
:10167000089590958095709561957F4F8F4F9F4FFE
:101680000895EE0FFF1F881F8BBF0790F691E02D86
:1016900019940F931F93CF93DF938230910510F429
:1016A00082E090E0E091DC02F091DD0230E020E0A9
:1016B000B0E0A0E0309799F42115310509F44AC053
:1016C000281B390B24303105D8F58A819B8161159F
:1016D000710589F1FB0193838283FE0111C0408172
:1016E00051810281138148175907E0F048175907C3
:1016F00099F4109761F012960C93129713961C931D
:101700003296CF01DF91CF911F910F9108950093F1
:10171000DC021093DD02F4CF2115310551F04217A0
:10172000530738F0A901DB019A01BD01DF01F8017F
:10173000C1CFEF01F9CF9093DD028093DC02CDCFD2
:10174000FE01E20FF31F81939193225031093983F7
:101750002883D7CF2091DA023091DB02232B41F48A
:1017600020911A0230911B023093DB022093DA029F
:1017700020911802309119022115310541F42DB73D
:101780003EB740911C0250911D02241B350BE09185
:10179000DA02F091DB02E217F307A0F42E1B3F0BF5
:1017A0002817390778F0AC014E5F5F4F24173507D3
:1017B00048F04E0F5F1F5093DB024093DA02819393
:1017C00091939FCFF0E0E0E09CCFCF93DF93009721
:1017D000E9F0FC01329713821282A091DC02B091F1
:1017E000DD02ED0130E020E01097A1F4208131818D
:1017F000820F931F2091DA023091DB0228173907FC
:1018000009F061C0F093DB02E093DA02DF91CF913F
:101810000895EA01CE17DF07E8F54A815B819E0152
:1018200041155105B1F7E901FB83EA8349915991CB
:10183000C40FD51FEC17FD0761F4808191810296DA
:10184000840F951FE90199838883828193819B830B
:101850008A83F0E0E0E012968D919C9113970097B7
:10186000B9F52D913C911197CD010296820F931FEE
:101870002091DA023091DB022817390739F63097C8
:1018800051F51092DD021092DC02B093DB02A093BE
:10189000DA02BCCFD383C28340815181840F951F6C
:1018A000C817D90761F44E5F5F4F88819981480F4F
:1018B000591F518340838A819B81938382832115A1
:1018C000310509F0B0CFF093DD02E093DC029ECF4A
:1018D000FD01DC01C0CF13821282D7CF4F925F92FD
:1018E0006F927F928F929F92AF92BF92CF92DF9230
:1018F000EF92FF920F931F93CF93DF938C0100978A
:1019000099F4CB01DF91CF911F910F91FF90EF9050
:10191000DF90CF90BF90AF909F908F907F906F900F
:101920005F904F900C94490BFC01E60FF71F9C0150
:1019300022503109E217F30708F4AEC0D901CD9166
:10194000DC911197C617D70720F1C530D10578F083
:10195000CE0104978617970750F0C61BD70B229726
:10196000C193D1936D937C93CF010E94E50BC80185
:10197000DF91CF911F910F91FF90EF90DF90CF906B
:10198000BF90AF909F908F907F906F905F904F909F
:1019900008955B01AC1ABD0A4C018C0E9D1EA091EE
:1019A000DC02B091DD02512C412CF12CE12C10977E
:1019B00031F58091DA029091DB028815990509F0E2
:1019C0005CC04616570608F058C0809118029091E6
:1019D0001902009741F48DB79EB740911C025091B7
:1019E0001D02841B950BE817F90708F055C0F0930A
:1019F000DB02E093DA02F90171836083B8CF8D9145
:101A00009C91119712966C90129713967C90139755
:101A1000A815B90559F56C0142E0C40ED11CCA14D1
:101A2000DB0420F1AC014A195B09DA011296159723
:101A300080F06282738251834083D9016D937C93DD
:101A4000E114F10471F0D7011396FC93EE93129711
:101A50008ECF22968C0F9D1FF90191838083F30115
:101A6000EFCFF093DD02E093DC0281CF48165906F8
:101A700008F42C017D01D3019ACFCB010E94490BC0
:101A80007C01009749F0AE01B8010E944F0DC801DA
:101A90000E94E50B87016BCF10E000E068CFFB01EF
:101AA000DC0102C001900D9241505040D8F70895DA
:101AB000FC018191861721F08823D9F79927089591
:101AC0003197CF010895FB01DC0101900D920020B8
:101AD000E1F7089511E0C7E3D1E000E006C0802FF0
:101AE000FE010E94410B2196011DC833D10780E001
:081AF0000807A9F7F894FFCFE5
:101AF80016171819111213143738392F3435362A96
:101B08003132332D6F303D2B0000DE0280000000A3
:101B18000000F802FC02000300000000F8040403BF
:081B280031030303696E66003E
:00000001FF
