:100000000C9461000C9473000C9473000C947300B6
:100010000C9473000C9473000C9473000C94730094
:100020000C9473000C9473000C9473000C94730084
:100030000C9473000C9473000C9473000C94730074
:100040000C94F1000C9473000C9473000C947300E6
:100050000C9473000C9473000C9473000C94730054
:100060000C9473000C94730000000000240027001F
:100070002A000000000023002600290000000000E4
:10008000250028002B0004040404040404040202D4
:100090000202020203030303030301020408102007
:1000A0004080010204081020010204081020000012
:1000B0000008000201000003040700000000000027
:1000C000000011241FBECFEFD8E0DEBFCDBF21E07E
:1000D000A0E0B1E001C01D92A930B207E1F70E9493
:1000E0003B010C940E020C940000833081F028F444
:1000F000813099F08230A9F008958730A9F08830D6
:10010000C9F08430B1F4809180008F7D03C080916C
:1001100080008F7780938000089584B58F7784BDA9
:10012000089584B58F7DFBCF8091B0008F77809349
:10013000B00008958091B0008F7DF9CF1F93CF93C9
:10014000DF93282F30E0F901E255FF4F8491F90148
:10015000E656FF4FD491F901EA57FF4FC491CC23E3
:10016000A9F0162F81110E947500EC2FF0E0EE0F20
:10017000FF1FE458FF4FA591B4918FB7F894EC910D
:10018000111108C0D095DE23DC938FBFDF91CF9192
:100190001F910895DE2BF8CF3FB7F89480910501A9
:1001A00090910601A0910701B091080126B5A89B86
:1001B00005C02F3F19F00196A11DB11D3FBFBA2FF9
:1001C000A92F982F8827BC01CD01620F711D811DB9
:1001D000911D42E0660F771F881F991F4A95D1F73E
:1001E00008951F920F920FB60F9211242F933F93F1
:1001F0008F939F93AF93BF938091010190910201E0
:10020000A0910301B09104013091000123E0230F7C
:100210002D3758F50196A11DB11D20930001809343
:10022000010190930201A0930301B0930401809116
:10023000050190910601A0910701B0910801019676
:10024000A11DB11D8093050190930601A0930701A4
:10025000B0930801BF91AF919F918F913F912F91E2
:100260000F900FBE0F901F90189526E8230F02964F
:10027000A11DB11DD2CF789484B5826084BD84B5B0
:10028000816084BD85B5826085BD85B5816085BD91
:1002900080916E00816080936E0010928100809149
:1002A00081008260809381008091810081608093D1
:1002B0008100809180008160809380008091B100F6
:1002C00084608093B1008091B00081608093B00021
:1002D00080917A00846080937A0080917A008260B5
:1002E00080937A0080917A00816080937A00809177
:1002F0007A00806880937A001092C100E7EAF0E00B
:100300002491E3E9F0E08491882399F090E0880F4C
:10031000991FFC01E859FF4FA591B491FC01E458E5
:10032000FF4F859194918FB7F894EC91E22BEC9369
:100330008FBFC1EAD0E0FE0124910DE810E0F80182
:1003400084918823C9F090E0880F991FFC01E85937
:10035000FF4FA591B491FC01E458FF4F4591549192
:100360009FB7F8943C91822F809583238C93FA0158
:100370008081282B20839FBF60E08DE00E949E003B
:1003800025EB822E20E0922E30E0A32E30E0B32E1B
:10039000F4018491FE01E490F801F490FF2079F0DB
:1003A00081110E947500EF2DF0E0EE0FFF1FEE5857
:1003B000FF4FA591B4918C91E82260E009F461E0CF
:1003C0008DE00E949E000E94CC002B013C018AE03F
:1003D000C82ED12CE12CF12C0E94CC006419750997
:1003E00086099709683E734081059105A8F3F1E0FD
:1003F000CF1AD108E108F10828EE420E23E0521E80
:10040000611C711CC114D104E104F10429F7A11489
:10041000B10409F4BDCF0E940000BACFF894FFCF19
:00000001FF
