:100000000C9461000C9473000C9473000C947300B6
:100010000C9473000C9473000C9473000C94730094
:100020000C9473000C9473000C9473000C94730084
:100030000C9473000C9473000C9473000C94730074
:100040000C949E000C9473000C9473000C94730039
:100050000C9473000C9473000C9473000C94730054
:100060000C9473000C94730000000000240027001F
:100070002A000000000023002600290000000000E4
:10008000250028002B0004040404040404040202D4
:100090000202020203030303030301020408102007
:1000A0004080010204081020010204081020000012
:1000B0000008000201000003040700000000000027
:1000C000000011241FBECFEFD8E0DEBFCDBF21E07E
:1000D000A0E0B1E001C01D92A930B207E1F70E9493
:1000E000E8000C94B2010C940000833081F028F4F5
:1000F000813099F08230A9F008958730A9F08830D6
:10010000C9F08430B1F4809180008F7D03C080916C
:1001100080008F7780938000089584B58F7784BDA9
:10012000089584B58F7DFBCF8091B0008F77809349
:10013000B00008958091B0008F7DF9CF1F920F928B
:100140000FB60F9211242F933F938F939F93AF93EA
:10015000BF938091050190910601A0910701B09194
:1001600008013091040123E0230F2D3758F5019643
:10017000A11DB11D209304018093050190930601F8
:10018000A0930701B09308018091000190910101B3
:10019000A0910201B09103010196A11DB11D8093B0
:1001A000000190930101A0930201B0930301BF915C
:1001B000AF919F918F913F912F910F900FBE0F9014
:1001C0001F90189526E8230F0296A11DB11DD2CFCE
:1001D000789484B5826084BD84B5816084BD85B522
:1001E000826085BD85B5816085BD80916E0081602E
:1001F00080936E00109281008091810082608093D4
:1002000081008091810081608093810080918000D5
:100210008160809380008091B10084608093B10000
:100220008091B00081608093B00080917A008460FA
:1002300080937A0080917A00826080937A00809126
:100240007A00816080937A0080917A008068809340
:100250007A001092C10077EAE72E70E0F72EF701DE
:100260002491E3E9CE2EE0E0DE2EF601849188238E
:1002700099F090E0880F991FFC01E859FF4FA59174
:10028000B491FC01E458FF4F859194918FB7F89495
:100290009C91292B2C938FBFC1EAD0E0FE012491C1
:1002A0000DE810E0F80184918823C9F090E0880FF0
:1002B000991FFC01E859FF4FA591B491FC01E45846
:1002C000FF4F459154919FB7F8943C91822F8095B0
:1002D00083238C93FA018081282B20839FBF25EBF9
:1002E000622E20E0722E3BEB832E30E0932E40E016
:1002F000A42E40E0B42EF3018491FE015490F80145
:10030000449041100EC0F4018491F7015490F6011D
:100310004490411015C0A114B10469F30E9400007B
:10032000EACF81110E947500E42DF0E0EE0FFF1F6F
:10033000EE58FF4FA591B4918C91582221F3EBCF49
:1003400081110E947500E42DF0E0EE0FFF1FE458CC
:10035000FF4FA591B4918FB7F8949C91592A5C9264
:080360008FBFD9CFF894FFCF45
:00000001FF
